:100000000C94A7000C94CF000C94CF000C94CF005C
:100010000C94CF000C94CF000C94CF000C94CF0024
:100020000C94CF000C94CF000C94CF000C94CF0014
:100030000C94CF000C94CF000C94CF000C94CF0004
:100040000C9437050C94CF000C947F040C94590445
:100050000C94CF000C94CF000C94CF000C94CF00E4
:100060000C9481050C94CF0007634236B79BD8A748
:100070001A39685618AEBAAB558C1D3CB7CC5763CD
:10008000BD6DEDFD753EF6177231BF000000803F7B
:1000900008000000BE922449123EABAAAA2ABECD97
:1000A000CCCC4C3E00000080BEABAAAAAA3E000009
:1000B0000000BF000000803F000000000008417801
:1000C000D3BB4387D1133D190E3CC3BD4282AD2B38
:1000D0003E68EC8276BED98FE1A93E4C80EFFFBE30
:1000E00001C4FF7F3F00000000000001020304057F
:1000F0001112131415160A0B0C0D0E0F0000000838
:1001000000020100000304070000000000000000DE
:1001100000000000250028002B0000000000240043
:1001200027002A0004040404040404040202020256
:1001300002020303030303030102040810204080AA
:100140000102040810200102040810208F0E11245F
:100150001FBECFEFD8E0DEBFCDBF12E0A0E0B1E020
:10016000EAE1F6E202C005900D92A03EB107D9F790
:1001700024E0A0EEB2E001C01D92AF3CB207E1F76F
:1001800010E0C7EAD0E004C02197FE010E941D0FD5
:10019000C63AD107C9F70E9425090C940B130C9499
:1001A0000000CF92DF92EF92FF920F931F93CF93B5
:1001B000DF936C017A018B01C0E0D0E0CE15DF0542
:1001C00089F0D8016D918D01D601ED91FC910190DE
:1001D000F081E02DC6010995892B11F47E0102C042
:1001E0002196ECCFC701DF91CF911F910F91FF9026
:1001F000EF90DF90CF90089521E020937A0327E7D6
:1002000020939C0310927B0310929D0342E050E0E8
:10021000BC018BE394E00E94B00381E00E94F407EC
:10022000982F80939C0481E0911180E008950E94B2
:10023000E4126115710579F0FB0101900020E9F7E6
:100240003197AF01461B570BDC01ED91FC91028009
:10025000F381E02D099480E090E00895BC018EE9DF
:1002600093E00C9419014F925F926F927F92EF92FC
:10027000FF920F931F93CF93DF93CDB7DEB7A19774
:100280000FB6F894DEBF0FBECDBF7C01FA01CB01E3
:1002900019A2223008F42AE08E010F5D1F4F422E72
:1002A000512C612C712CBF01A30192010E94E91213
:1002B000F901CA01015011096A3014F4605D01C0EE
:1002C000695CD8016C93232B242B252B61F7B80193
:1002D000C7010E941901A1960FB6F894DEBF0FBEA8
:1002E000CDBFDF91CF911F910F91FF90EF907F9045
:1002F0006F905F904F9008954F925F926F927F92B0
:100300008F929F92AF92BF92CF92DF92EF92FF9225
:100310006B017C01B42E9B01AC010E94AA118823C1
:1003200019F066E371E027C026013701E89477F8F9
:100330002FEF3FEF4FE75FE7C301B2010E94AA1121
:1003400081110DC02FEF3FEF4FE75FE7C301B2010F
:100350000E94900F18161CF46AE371E00CC02FEF96
:100360003FEF4FE75FE4C701B6010E94E81018169F
:1003700094F46EE371E08EE993E0FF90EF90DF90EC
:10038000CF90BF90AF909F908F907F906F905F9035
:100390004F900C9419012FEF3FEF4FE75FECC7012F
:1003A000B6010E94900F87FDE4CF20E030E0A90164
:1003B000C701B6010E94900F87FF11C0E0919E0314
:1003C000F0919F030190F081E02D6DE28EE993E0C2
:1003D00009954C01F7FAF094F7F8F09402C0812CDB
:1003E000912CA12C60E070E080E09FE3AB1440F41E
:1003F00020E030E040E251E40E94950FA394F6CF54
:100400009B01AC01C701B6010E94240F2B013C01E6
:100410000E9407106B017C010E9436109B01AC0109
:10042000C301B2010E94230F2B013C012AE0B70156
:10043000A6018EE993E00E9433017C01E80CF91CCF
:10044000BB2041F063ED72E08EE993E00E94190158
:10045000E80EF91EDB2CDD2031F120E030E040E237
:1004600051E4C301B2010E94ED102B013C010E9436
:1004700007104B01A12CB12C2AE0B501A4018EE993
:1004800093E00E943301E80EF91EC501B4010E94F9
:1004900036109B01AC01C301B2010E94230F2B0156
:1004A0003C01DA94D8CFC701FF90EF90DF90CF9056
:1004B000BF90AF909F908F907F906F905F904F9084
:1004C0000895FC01918D828D981761F0828DDF0176
:1004D000A80FB11D5D968C91928D9F5F9F73928F37
:1004E00090E008958FEF9FEF0895FC01918D828D2C
:1004F000981731F0828DE80FF11D858D90E00895F9
:100500008FEF9FEF0895FC01918D228D892F90E050
:10051000805C9F4F821B91098F73992708958EE904
:1005200093E00E94830221E0892B09F420E0822FCE
:100530000895FC01848DDF01A80FB11DA35ABF4FA0
:100540002C91848D90E001968F739927848FA689D2
:10055000B7892C93A089B1898C9180648C93938DF9
:10056000848D981306C00288F389E02D80818F7DE9
:1005700080830895EF92FF920F931F93CF93DF93A1
:10058000EC0181E0888F9B8D8C8D981305C0E889E4
:10059000F989808185FD24C0F62E0B8D10E00F5F58
:1005A0001F4F0F731127E02E8C8DE8120CC00FB671
:1005B00007FCFACFE889F989808185FFF5CFCE0164
:1005C0000E949902F1CF8B8DFE01E80FF11DE35AD5
:1005D000FF4FF0820B8FEA89FB898081806207C020
:1005E000EE89FF896083E889F9898081806480834E
:1005F00081E090E0DF91CF911F910F91FF90EF90FC
:100600000895CF93DF93EC01888D8823C9F0EA89A0
:10061000FB89808185FD05C0A889B9898C9186FDFB
:100620000FC00FB607FCF5CF808185FFF2CFA889F8
:10063000B9898C9185FFEDCFCE010E949902E7CF59
:10064000DF91CF91089580E090E0892B29F00E94FE
:100650008F0281110C94000008953FB7F8948091A7
:100660002D0390912E03A0912F03B091300326B556
:10067000A89B05C02F3F19F00196A11DB11D3FBFDA
:10068000BA2FA92F982F8827820F911DA11DB11D68
:10069000BC01CD0143E0660F771F881F991F4A9563
:1006A000D1F7089585ED8093BC008091BC0084FD56
:1006B000FCCF10927903089540910303262F30E078
:1006C000240F311D21323105DCF4209179032430CF
:1006D000C9F4FC0180E090E0861758F430910303E0
:1006E0002191DC01AF51BD4FA30FB11D2C93019699
:1006F000F3CF80910303680F6093030380E00895B4
:1007000081E0089582E008950895E0913203809198
:100710003103E81730F4F0E0ED5CFC4F808190E0AD
:1007200008958FEF9FEF08959091320380913103E8
:10073000981750F4E92FF0E0ED5CFC4F208130E099
:100740009F5F9093320302C02FEF3FEFC9010895DE
:100750008091310390E020913203821B910908952A
:10076000CF92DF92EF92FF920F931F93CF93DF937D
:100770007C01262F972F8A0180917A03882391F09C
:10078000C62FD72F6E01C40ED51ECC15DD0571F016
:100790006991D701ED91FC910190F081E02DC701A5
:1007A0000995F3CF642F822F0E945C03C801DF916B
:1007B000CF911F910F91FF90EF90DF90CF90089510
:1007C000CF93DF931F92CDB7DEB7698320917A0371
:1007D0002223D1F020919D03203240F021E030E02F
:1007E000FC013383228380E090E015C080917B037D
:1007F000E82FF0E0E458FC4F998190838F5F80935D
:100800007B0380939D0305C061E0CE0101960E94A9
:100810005C0381E090E00F90DF91CF9108958F927B
:100820009F92AF92BF92CF92DF92EF92FF920F937F
:100830001F93CF93DF937C01EB016C0182E0C80E24
:10084000D11C4701E5E08E0E911C00E010E0F6019E
:1008500041916F0150E060E070E02AE0CE010E941B
:1008600033015C01E881F9810190F081E02D6EE2B5
:10087000CE0109958A0D9B1D080F191FC814D904B4
:1008800031F7F701458150E060E070E02AE0CE01E9
:100890000E943301800F911FDF91CF911F910F9123
:1008A000FF90EF90DF90CF90BF90AF909F908F9090
:1008B00008951F920F920FB60F9211242F933F931A
:1008C0004F935F936F937F938F939F93AF93BF9358
:1008D000EF93FF938EE993E00E949902FF91EF91CD
:1008E000BF91AF919F918F917F916F915F914F9148
:1008F0003F912F910F900FBE0F901F9018951F9250
:100900000F920FB60F9211242F938F939F93EF9313
:10091000FF93E091AE03F091AF038081E091B403C7
:10092000F091B50382FD12C090818091B7038F5F73
:100930008F732091B803821751F0E091B703F0E074
:10094000E256FC4F958F8093B70301C08081FF91E1
:10095000EF919F918F912F910F900FBE0F901F904D
:10096000189590E0FC01E450FF4F3491FC01E85CE5
:10097000FE4F2491FC01EC5DFE4FE491EE2309F45F
:100980003BC0332339F1333091F038F43130A9F0E2
:10099000323001F584B58F7D12C0373091F0383098
:1009A000A1F03430B9F4809180008F7D03C0809134
:1009B00080008F77809380000DC084B58F7784BDD1
:1009C00009C08091B0008F7703C08091B0008F7D07
:1009D0008093B000F0E0EE0FFF1FE05FFE4FA591A7
:1009E000B4918FB7F894EC91611103C020952E2338
:1009F00001C02E2B2C938FBF08958F929F92AF92A0
:100A0000BF92CF92DF92EF92FF926B017C010E9426
:100A10002D034B015C01C114D104E104F104F1F098
:100A20000E942D03DC01CB0188199909AA09BB0991
:100A3000883E9340A105B10570F321E0C21AD108A8
:100A4000E108F10888EE880E83E0981EA11CB11C15
:100A5000C114D104E104F10419F7DDCFFF90EF9048
:100A6000DF90CF90BF90AF909F908F9008951F928E
:100A70000F920FB60F9211242F933F938F939F9352
:100A8000AF93BF938091290390912A03A0912B03E8
:100A9000B0912C033091280326E0230F2D3720F44A
:100AA0000296A11DB11D05C029E8230F0396A11DC3
:100AB000B11D209328038093290390932A03A093C8
:100AC0002B03B0932C0380912D0390912E03A091C2
:100AD0002F03B09130030196A11DB11D80932D030A
:100AE00090932E03A0932F03B0933003BF91AF9147
:100AF0009F918F913F912F910F900FBE0F901F905C
:100B000018951F920F920FB60F9211242F933F93B7
:100B10004F935F936F937F938F939F93AF93BF9305
:100B2000EF93FF938091B900887F803609F49CC0D1
:100B300068F5883209F45BC090F4803109F454C040
:100B400038F4882309F4F6C0883009F44DC0F6C0A3
:100B5000883109F44CC0803209F45DC0EFC08034A4
:100B600009F468C048F4803309F455C0883309F0AB
:100B7000E5C080937703D8C0803509F44FC088352D
:100B800009F45DC0883409F0D9C0D6C0883909F4A9
:100B9000C7C0A8F4883709F467C038F4883609F468
:100BA00063C0803709F460C0C9C0883809F4B8C090
:100BB000803909F45FC0803809F0C0C05BC0803B59
:100BC00009F486C038F4803A09F466C0883A09F41A
:100BD0007FC0B4C0803C09F4A7C0883C09F4A4C01D
:100BE000883B09F48AC0AAC08091540310C0909138
:100BF000760380917503981770F5E091760381E094
:100C00008E0F80937603F0E0EB5AFC4F8081809347
:100C1000BB0085EC86C0809377038EC0E09176039D
:100C200081E08E0F809376038091BB00F0E0EB5A59
:100C3000FC4F808390917603809175036EC0E091A4
:100C4000760381E08E0F809376038091BB00F0E005
:100C5000EB5AFC4F80838091780381116DC081E055
:100C60008093530384EA61C083E0809379031092F8
:100C70002703CFCF80912703803208F051C0E09145
:100C8000270381E08E0F809327038091BB00F0E063
:100C9000E95FFC4F8083BDCF85EC8093BC00109250
:100CA000790380912703803230F4E0912703F0E04C
:100CB000E95FFC4F10826091270370E0E09105032B
:100CC000F091060387E093E009951092270336C060
:100CD00084E0809379031092040310920303E0915F
:100CE0000103F0910203099580910303811105C06E
:100CF00081E0809303031092E102E091040381E01C
:100D00008E0F80930403F0E0EF51FD4F80818093BC
:100D1000BB009091040380910303981708F479CFE6
:100D200085E88093BC000AC085EC8093BC001092DB
:100D3000790304C0109277030E945203FF91EF9150
:100D4000BF91AF919F918F917F916F915F914F91E3
:100D50003F912F910F900FBE0F901F9018958EBD51
:100D600000000DB407FEFDCF8EB508958F929F92BF
:100D7000AF92BF92CF92DF92EF92FF920F931F93A9
:100D8000CF93DF93CDB7DEB7CF5FD1090FB6F8941D
:100D9000DEBF0FBECDBF6B017C0149015A0185ED5D
:100DA00092E00E942E012AE0B701A6018EE993E0AD
:100DB0000E94330169E471E08EE993E00E94190119
:100DC0008CE089838A838AE08B831C82C701B60109
:100DD0000E94160F8B019C01C501B4010E94160FE1
:100DE0000D831E832F83388769877A878B879C873B
:100DF00080E00E94410780EA0E94AF068E010F5FEB
:100E00001F4F80E2F82EF00EF01631F0F8018191BC
:100E10008F010E94AF06F8CF81E00E94410761E098
:100E2000809147040E94B1048FEF0E94B307807342
:100E3000D9F360E0809147040E94B10460E787E045
:100E40000E94820784FF06C081EE0E94B30787EAF2
:100E500092E002C08BEB92E0C150DF4F0FB6F894E6
:100E6000DEBF0FBECDBFDF91CF911F910F91FF90DD
:100E7000EF90DF90CF90BF90AF909F908F900C94A9
:100E8000E1079CB59F7D9CBD9CB5937F9CBD9CB5A7
:100E90009C7F9CBD9DB591609DBD682F809148044D
:100EA0000C94B104EF92FF920F931F93CF93DF93B3
:100EB00000D0CDB7DEB7082F162F80E049837A83A4
:100EC0000E944107802F8F7180620E94AF06082F19
:100ED000E12E7A81F72E4981140F1E1531F0F701AA
:100EE00081917F010E94AF06F8CF81E00E94410707
:100EF000802F0F900F90DF91CF911F910F91FF9056
:100F0000EF9008951F93CF93DF931F92CDB7DEB775
:100F1000182F80E069830E944107812F8F718062C2
:100F20000E94AF06182F6981862F0E94AF0681E0CC
:100F30000E944107812F0F90DF91CF911F9108955B
:100F4000CF93C82F80E00E9441078C2F8F710E94A1
:100F5000AF068FEF0E94AF06C82F81E00E944107C5
:100F60008C2FCF910895CF93C82F80E00E94410726
:100F70008C2F0E94AF06C82F81E00E9441078C2F62
:100F8000CF91089590E0FC01E85CFE4F2491FC01B4
:100F9000EC5DFE4F8491882399F090E0880F991FB3
:100FA000FC01E65EFE4FA591B491FC01E05FFE4FAF
:100FB000859194918FB7F894EC91E22BEC938FBFCD
:100FC0000895CF93DF93BC018EE993E00E9419014D
:100FD000EC0169E471E08EE993E00E9419018C0F45
:100FE0009D1FDF91CF910895382F20919D039091FF
:100FF0009C03213208F049C0809179038111FCCF14
:1010000042E040937903309378033FEF30937703C6
:101010001092760320937503ACE7B3E045E553E007
:10102000FA013E2F341B321718F43D913193F9CF5A
:101030001092540320915403990F922B90935403D0
:1010400090915303913061F41092530390915403A3
:101050009093BB009091BC0093FDF8CF95EC01C03C
:1010600095EE9093BC00909179039230E1F39091CA
:1010700077039F3F79F080917703803241F0809130
:101080007703803331F084E005C081E003C082E063
:1010900001C083E010927B0310929D0310927A03AB
:1010A0000895EF92FF920F931F93CF93DF938C01DC
:1010B000C62F81E080937A0387E780939C03109288
:1010C0007B0310929D03F80160818BE394E00E9402
:1010D000E00381E00E94F40780939C04811163C0C7
:1010E0004C2F0C2E000C550B809179038111FCCFF5
:1010F0002C2FC13208F020E281E0809379038093A5
:1011000078039FEF9093770310927603920F90935A
:10111000750380935403909154039E6E90935403EF
:1011200080915303813061F41092530380915403F2
:101130008093BB008091BC0083FDF8CF85EC01C09B
:1011400085EE8093BC00809179038130E1F380913A
:101150007603821710F420917603A5E5B3E063E3EC
:1011600073E0FB018E2F861B821718F48D918193FB
:10117000F9CF109232032093310330E02417350762
:10118000E9F7D0E0DC176CF47801ED0EF11CD7FD27
:10119000FA948BE394E00E949403F7018083DF5F6D
:1011A000F1CF81E001C080E0DF91CF911F910F91DD
:1011B000FF90EF9008950F931F93CF93DF9300D08C
:1011C000CDB7DEB78B01898362E0CE0101960E9424
:1011D0005108882359F0898190E0982F88272A8127
:1011E000822BF8019183808381E003C0F801118292
:1011F00010820F900F90DF91CF911F910F91089562
:101200000F931F93CF93DF9300D0CDB7DEB78B0141
:10121000898362E0CE0101960E945108882359F02B
:10122000898190E0982F88272A81822BF801918369
:10123000808381E003C0F801118210820F900F902B
:10124000DF91CF911F910F910895CF93DF93CDB789
:10125000DEB72B970FB6F894DEBF0FBECDBF7894E4
:1012600084B5826084BD84B5816084BD85B58260AB
:1012700085BD85B5816085BD80916E00816080935C
:101280006E001092810080918100826080938100C5
:1012900080918100816080938100809180008160D5
:1012A000809380008091B10084608093B100809130
:1012B000B00081608093B00080917A008460809358
:1012C0007A0080917A00826080937A0080917A001F
:1012D0008E7F80937A0080917A00806880937A0074
:1012E0001092C100E091AE03F091AF0382E08083E1
:1012F000E091AA03F091AB031082E091AC03F0916E
:10130000AD0387E680831092B603E091B203F091BB
:10131000B30386E08083E091B003F091B103808154
:1013200080618083E091B003F091B1038081886097
:101330008083E091B003F091B10380818068808365
:10134000E091B003F091B10380818F7D808382E4CE
:1013500091E00E94E1071092320310923103109243
:101360007B0310929D031092790381E080937803B0
:101370001092530361E082E10E94B10461E083E1D5
:101380000E94B1048091B9008E7F8093B900809152
:10139000B9008D7F8093B90080E28093B80085E426
:1013A0008093BC0062E574E08AEA0E94DB0888232F
:1013B00009F4ACC464E574E08CEA0E94DB0888237D
:1013C00009F4A4C466E574E08EEA0E94DB08882371
:1013D00009F49CC462E674E080EB0E940009882353
:1013E00009F494C464E674E082EB0E940009882347
:1013F00009F48CC466E674E084EB0E94000988233B
:1014000009F484C468E574E086EB0E94DB08882355
:1014100009F47CC46AE574E088EB0E94DB08882349
:1014200009F474C46CE574E08AEB0E94DB0888233D
:1014300009F46CC46EE574E08CEB0E94DB08882331
:1014400009F464C460E674E08EEB0E94DB08882334
:1014500009F45CC46091560470915704072E000C87
:10146000880B990B0E94381020E030E040EA5BE3E3
:101470000E94ED102B013C016091620470916304A5
:1014800080E090E00E9436102FE632E143E053E323
:101490000E94ED106B017C01609158047091590419
:1014A000072E000C880B990B0E94381020E030E0CA
:1014B00048EC57E30E94ED104B015C01609164041D
:1014C0007091650480E090E00E9436102DEC3CECB9
:1014D0004CE454E30E94ED10609368047093690437
:1014E00080936A0490936B04609166047091670422
:1014F00080E090E00E94361060936C0470936D045D
:1015000080936E0490936F0460915E0470915F0409
:10151000072E000C880B990B0E9438102AE037ED3B
:1015200043EA5DE30E94ED106093700470937104D0
:1015300080937204909373046091600470916104CD
:10154000072E000C880B990B0E94381020E030E029
:1015500040E253E40E94950F609374047093750405
:1015600080937604909377046091520470915304B1
:10157000072E000C880B990B0E943810609378049A
:101580007093790480937A0490937B04609154045F
:1015900070915504072E000C880B990B0E9438108F
:1015A00020E030E040EA5CE30E94ED1060937C04B0
:1015B00070937D0480937E0490937F0460915A041D
:1015C00070915B04072E000C880B990B0E94381059
:1015D00020E030E048E45AE30E94ED10609380047C
:1015E00070938104809382049093830420E030E020
:1015F00040E057E4C701B6010E94ED1060938404F7
:10160000709385048093860490938704A3019201CC
:10161000C701B6010E94ED1060938804709389049D
:1016200080938A0490938B04A5019401C701B601AD
:101630000E94ED1060938C0470938D0480938E044F
:1016400090938F048CEE91E5A7E1B0E48093900431
:1016500090939104A0939204B093930480E394E355
:10166000AEE7BFE38093940490939504A09396040F
:10167000B093970480E097E5A4E9B6E380939804DB
:1016800090939904A0939A04B0939B0480E892E00D
:101690000E94E107809147040E94C207809148049C
:1016A0000E94C2071FB7F8948091E002811124C004
:1016B000EEE2F1E08491E2E4F1E09491E82FF0E0D1
:1016C000EE0FFF1FE65EFE4FA591B491EC91E9236A
:1016D00021F461E08AE00E94B1048AE00E94C2071E
:1016E0008CB580618CBD8CB580648CBD8DE00E9412
:1016F000C2078BE00E94C2078091E0028F5F809357
:10170000E0021FBF60E0809147040E94B10481E0C5
:101710000E94410765E070E080E090E00E94FD04D7
:101720006FE584E00E94820786E00E94A007877D23
:10173000182F1062612F86E00E94820786E00E94C7
:10174000A007811709F4E7C286E00E94A007682F6E
:10175000677D86E00E94820786E00E94A00780E005
:101760000E94A007682F6C6080E00E94820760E7FB
:1017700087E00E9482076CE485E00E94820782EE87
:101780000E94B30781EE0E94B30780E00E94A00789
:1017900081FD0EC080E00E94A007682F626080E09B
:1017A0000E94820765E070E080E090E00E94FD0406
:1017B00080E00E94A007682F6E7F80E00E94820771
:1017C0006FE381E00E9482076FEF84E00E9482074E
:1017D00086E00E94A007887F682F616086E00E94F3
:1017E00082074091510460E071E08AE00E94520754
:1017F0004091510460E071E080E10E9452076091E5
:101800004A0481E10E948207E7EFF0E08491409171
:10181000510466E071E00E945207E1EFF0E084912C
:1018200060914A040E94820782E00E94A007EBEECA
:10183000F0E0E49161E070E001C0660FEA95EAF73C
:10184000682B82E00E94820714EF8EE2382E06EFAA
:1018500069E471E08EE993E00E9419018CE491E063
:101860000E942E0140E050E060E070E086E993E4E1
:101870000E947C0180E691E00E942E0140E050E051
:1018800060E270E186E794E40E947C018AE691E0E0
:101890000E94E10719833A82CE0101960E94FC0062
:1018A000882309F426C265E070E080E090E00E94A1
:1018B000FD04098362E0CE0101960E94510888234D
:1018C00009F414C2698170E080E090E00E94381051
:1018D00020E030E040E853E40E94ED106B017C0111
:1018E0008A81682F70E080E090E00E9438109B01B0
:1018F000AC01C701B6010E94240F20916C04309105
:101900006D0440916E0450916F040E94230F20914A
:1019100068043091690440916A0450916B040E94FC
:10192000ED106B017C01209174043091750440919D
:101930007604509177040E94240F9B01AC016091C2
:1019400070047091710480917204909173040E94EC
:10195000950F9B01AC01C701B6010E94240F6B01DA
:101960007C0180E791E00E942E0142E050E0C70137
:10197000B6010E947C018EE791E00E942E0126E6CE
:1019800036E646EE5FE3C701B6010E94ED1020E0A7
:1019900030E040E052E40E94240F42E050E00E9418
:1019A0007C0187E891E00E94E10719831A83CE0148
:1019B00001960E94FC00882309F495C16AE170E059
:1019C00080E090E00E94FD04098363E0CE0101966F
:1019D0000E945108882309F483C120E030E048ECDC
:1019E00051E4C701B6010E94230F6C837D838E836F
:1019F0009F839B01AC010E94ED102B013C0169818A
:101A000070E080E090E00E94381020E030E040E894
:101A100053E40E94ED104B015C016A8170E080E0AC
:101A200090E00E9438109B01AC01C501B4010E94F6
:101A3000240F4B015C016B8170E080E090E00E941C
:101A4000381020E030E040E85BE30E94ED109B019D
:101A5000AC01C501B4010E94240F688779878A8789
:101A60009B872091800430918104409182045091A1
:101A70008304C301B2010E94ED104B015C0120916F
:101A80007C0430917D0440917E0450917F046C81F0
:101A90007D818E819F810E94ED109B01AC01C5016B
:101AA000B4010E94240F2091780430917904409170
:101AB0007A0450917B040E94240F9B01AC0168853D
:101AC00079858A859B850E94230F4B015C012091BB
:101AD0008C0430918D0440918E0450918F04C30189
:101AE000B2010E94ED102B013C012091880430913D
:101AF000890440918A0450918B046C817D818E8190
:101B00009F810E94ED109B01AC01C301B2010E94B4
:101B1000240F2091840430918504409186045091D3
:101B200087040E94240F9B01AC01C501B4010E94EF
:101B3000950F4B015C019B01AC010E94ED102091BF
:101B400098043091990440919A0450919B040E940A
:101B5000ED102B013C0120919404309195044091AB
:101B6000960450919704C501B4010E94ED109B01A9
:101B7000AC01C301B2010E94240F20919004309166
:101B8000910440919204509193040E94240F2B01E0
:101B90003C018EE891E00E942E0142E050E0C3013A
:101BA000B2010E947C0182EA91E00E942E0129EF9D
:101BB0003FEE41EF5CE3C301B2010E94ED1042E051
:101BC00050E00E947C0188EA91E00E94E10728EA47
:101BD00036E047E75FE3C301B2010E94950F4B0176
:101BE0005C018EEA91E00E942E0142E050E0C501C6
:101BF000B4010E947C0182EA91E00E942E0129EF4B
:101C00003FEE41EF5CE3C501B4010E94ED1042E0FC
:101C100050E00E947C0188EA91E00E94E107A50162
:101C20009401C301B2010E94950F2EEA3CED42E4FB
:101C30005EE30E945A119B01AC0160E070E080E815
:101C40009FE30E94230F20E03AE24DE257E40E9416
:101C5000ED102B013C018EEC91E00E942E0140E042
:101C600050E0C301B2010E947C0180E691E00E9435
:101C70002E0128E439EF41E550E4C301B2010E948E
:101C8000ED1040E050E00E947C018AE691E00E9465
:101C9000E10720E030E04AE754E4C701B6010E94C2
:101CA000ED100E9407106B017C0120E030E04AE754
:101CB00054E4C501B4010E94ED1020E030E040E0A2
:101CC0005FE30E94240F0E940710A70196010E9463
:101CD000B60660EC77E289E090E00E94FD040DC05A
:101CE00082EE91E008C089E092E005C08EE292E0C9
:101CF00002C088E592E00E94E10768E873E180E0B5
:101D000090E00E94FD040E942303A2CD84E992E0AA
:101D10000E94E107FFCF81E08093490415CDEDE9F2
:101D2000F4E084E391E09183808312821382148231
:101D30001582EEE9F3E01382128248EE53E060E090
:101D400070E0448355836683778324E131E03183F7
:101D5000208325EC30E03587248724EC30E037877A
:101D6000268720EC30E0318B208B21EC30E0338B68
:101D7000228B22EC30E0358B248B26EC30E0378B45
:101D8000268B118E128E138E148EEBE3F4E01382E9
:101D90001282448355836683778324E231E0318362
:101DA0002083E3EAF4E09183808312821382148219
:101DB0001582E9EAF4E0918380831282138214820F
:101DC0001582EFEAF4E091838083128213821482F9
:101DD0001582EDEBF4E091838083128213821482EA
:101DE0001582E5EBF4E091838083128213821482E2
:101DF0001582E3ECF4E091838083128213821482D3
:101E00001582E9ECF4E091838083128213821482BC
:101E10001582E7E4F4E089E080838AE0818312821E
:101E200080E28383148285E082870895692796275C
:101E300069277827872778270895EE0FFF1F0590D9
:101E4000F491E02D09945058BB27AA270E943B0F1C
:101E50000C94AE100E94A01038F00E94A71020F041
:101E600039F49F3F19F426F40C949D100EF4E0957C
:101E7000E7FB0C949710E92F0E94BF1058F3BA1794
:101E8000620773078407950720F079F4A6F50C9490
:101E9000E1100EF4E0950B2EBA2FA02D0B01B90125
:101EA00090010C01CA01A0011124FF27591B99F0D0
:101EB000593F50F4503E68F11A16F040A22F232FDC
:101EC000342F4427585FF3CF469537952795A7952C
:101ED000F0405395C9F77EF41F16BA0B620B730BD3
:101EE000840BBAF09150A1F0FF0FBB1F661F771F44
:101EF000881FC2F70EC0BA0F621F731F841F48F4F9
:101F0000879577956795B795F7959E3F08F0B0CF81
:101F10009395880F08F09927EE0F97958795089568
:101F20000E94731008F481E008950E94A90F0C9498
:101F3000AE100E94A71058F00E94A01040F029F4A3
:101F40005F3F29F00C94971051110C94E2100C94FF
:101F50009D100E94BF1068F39923B1F3552391F3AC
:101F6000951B550BBB27AA2762177307840738F008
:101F70009F5F5F4F220F331F441FAA1FA9F335D065
:101F80000E2E3AF0E0E832D091505040E695001C19
:101F9000CAF72BD0FE2F29D0660F771F881FBB1FD3
:101FA000261737074807AB07B0E809F0BB0B802DB1
:101FB000BF01FF2793585F4F3AF09E3F510578F0DD
:101FC0000C9497100C94E2105F3FE4F3983ED4F326
:101FD000869577956795B795F7959F5FC9F7880FB1
:101FE000911D9695879597F90895E1E0660F771F03
:101FF000881FBB1F621773078407BA0720F0621B94
:10200000730B840BBA0BEE1F88F7E09508950E94BE
:10201000C71088F09F5798F0B92F9927B751B0F0A3
:10202000E1F0660F771F881F991F1AF0BA95C9F75C
:1020300014C0B13091F00E94E110B1E008950C9409
:10204000E110672F782F8827B85F39F0B93FCCF3BC
:10205000869577956795B395D9F73EF490958095D9
:10206000709561957F4F8F4F9F4F0895E89409C0F9
:1020700097FB3EF490958095709561957F4F8F4FBB
:102080009F4F9923A9F0F92F96E9BB279395F695D1
:10209000879577956795B795F111F8CFFAF4BB0F4F
:1020A00011F460FF1BC06F5F7F4F8F4F9F4F16C0B3
:1020B000882311F096E911C0772321F09EE8872F3D
:1020C000762F05C0662371F096E8862F70E060E0F9
:1020D0002AF09A95660F771F881FDAF7880F969572
:1020E000879597F90895990F0008550FAA0BE0E816
:1020F000FEEF16161706E807F907C0F012161306CA
:10210000E407F50798F0621B730B840B950B39F409
:102110000A2661F0232B242B252B21F408950A266F
:1021200009F4A140A6958FEF811D811D089597F9AF
:102130009F6780E870E060E008959FEF80EC08956D
:1021400000240A9416161706180609060895002496
:102150000A9412161306140605060895092E039410
:10216000000C11F4882352F0BB0F40F4BF2B11F484
:1021700060FF04C06F5F7F4F8F4F9F4F089557FDE3
:102180009058440F551F59F05F3F71F04795880FE5
:1021900097FB991F61F09F3F79F08795089512167C
:1021A00013061406551FF2CF4695F1DF08C0161628
:1021B00017061806991FF1CF8695710561050894D9
:1021C0000895E894BB2766277727CB0197F90895F0
:1021D0000E94731008F48FEF08950E9400110C9470
:1021E000AE100E94A01038F00E94A71020F0952396
:1021F00011F00C9497100C949D1011240C94E21083
:102200000E94BF1070F3959FC1F3950F50E0551FCA
:10221000629FF001729FBB27F00DB11D639FAA273B
:10222000F00DB11DAA1F649F6627B00DA11D661F8A
:10223000829F2227B00DA11D621F739FB00DA11DAB
:10224000621F839FA00D611D221F749F3327A00D65
:10225000611D231F849F600D211D822F762F6A2F01
:1022600011249F5750409AF0F1F088234AF0EE0F66
:10227000FF1FBB1F661F771F881F91505040A9F793
:102280009E3F510580F00C9497100C94E2105F3F34
:10229000E4F3983ED4F3869577956795B795F795CF
:1022A000E7959F5FC1F7FE2B880F911D9695879547
:1022B00097F90895FA01EE0FFF1F309621053105B9
:1022C000A1F16115710561F48038BFE39B0749F105
:1022D00068949038810561F08038BFEF9B0741F02A
:1022E00099234AF5FF3FE1053105210519F1E894ED
:1022F0000894E795D901AA2329F4AB2FBE2FF85FE4
:10230000D0F310C0FF5F70F4A695E0F7F73950F0F6
:1023100019F0FF3A38F49F779F930DD00F9007FC88
:102320009058089546F00C949D1060E070E080E8AD
:102330009FE308954FE79F775F934F933F932F93CA
:102340000E945A122F913F914F915F910E94ED1080
:102350000C94B7110E947310880B990B089529F4FF
:1023600016F00C9497100C94E1100C949D100E94A0
:10237000C710A8F39638A0F707F80F92E8942BE35C
:102380003AEA48EB5FE70E9403110F920F920F9217
:102390004DB75EB70F920E94A212E8E6F0E00E94ED
:1023A000E9114F915F91EF91FF91E595EE1FFF1FAE
:1023B00049F0FE57E0684427EE0F441FFA95E1F715
:1023C0004195550B0E941C120F9007FE0C941012A1
:1023D0000895DF93CF931F930F93FF92EF92DF92B5
:1023E0007B018C01689406C0DA2EEF010E94001177
:1023F000FE01E894A5912591359145915591A6F35B
:10240000EF010E943B0FFE019701A801DA9469F7E2
:10241000DF90EF90FF900F911F91CF91DF91089582
:102420009B01AC0160E070E080E89FE30C94950FA5
:102430000C9497100C94D6120E94C710D8F39923CD
:10244000C9F3940F511DA3F39150504094F059F0EB
:10245000882332F0660F771F881F91505040C1F7D4
:102460009E3F51052CF7880F911D9695879597F9FA
:1024700008955F3FACF0983E9CF0BB27869577951A
:102480006795B79508F4B1609395C1F7BB0F58F7FE
:1024900011F460FFE8CF6F5F7F4F8F4F9F4FE3CF07
:1024A0000C94E21016F00C94D6120C949D106894C3
:1024B0000C9497100E94C710A8F39923C1F3AEF3B0
:1024C000DF93CF931F930F93FF92C92FDD278823AC
:1024D0002AF02197660F771F881FDAF720E030E097
:1024E00040E85FEB9FE3883920F0803E38F021968A
:1024F0008F770E94240FE0E9F0E004C00E94240FCF
:10250000EDEBF0E00E94E9118B01BE01EC01FB2E26
:102510006F5771097595771F880B990B0E943810BA
:1025200028E132E741E35FE30E940011AF2D9801FB
:10253000AE01FF900F911F91CF91DF910E943B0F51
:102540000C94AE10FA01DC01AA0FBB1F9B01AC0179
:10255000BF5728F4222733274427507820C0B7518B
:1025600090F4AB2F0024469537952795011CA39531
:10257000D2F3002071F0220F331F441FB395DAF31A
:102580000ED00C94230F61307105A0E88A07B9467C
:1025900030F49B01AC016627772788279078309626
:1025A00021F0208331834283538308959F3F31F08C
:1025B000915020F4879577956795B795880F911D71
:1025C0009695879597F9089581E090E0F8940C949A
:1025D0000B13A1E21A2EAA1BBB1BFD010DC0AA1FE3
:1025E000BB1FEE1FFF1FA217B307E407F50720F07C
:1025F000A21BB30BE40BF50B661F771F881F991FF7
:102600001A9469F760957095809590959B01AC013F
:0A261000BD01CF010895F894FFCF3B
:10261A00314E6F646500324E6F6465000100000040
:10262A0000000000BA02D1008302610275020103B0
:10263A0000000000E003B003A803940385038403A9
:10264A00000000000F046E616E00696E66006F760E
:10265A0066005245424F4F54000D0A0070726F7661
:10266A006964656420616C7469747564653A2000F4
:10267A00206D65746572732C200020666565740090
:10268A0074656D70657261747572653A20002064B4
:10269A00656720432C20002064656720460061623C
:1026AA00736F6C7574652070726573737572653AB1
:1026BA002000206D622C200020696E486700726538
:1026CA006C617469766520287365612D6C65766521
:1026DA006C292070726573737572653A2000636F96
:1026EA006D707574656420616C7469747564653A9B
:1026FA0020006572726F72207265747269657669FC
:10270A006E67207072657373757265206D6561738B
:10271A007572656D656E740A006572726F722073E8
:10272A0074617274696E672070726573737572650D
:10273A00206D6561737572656D656E740A006572E8
:10274A00726F722072657472696576696E67207439
:10275A00656D7065726174757265206D65617375FA
:10276A0072656D656E740A006572726F7220737499
:10277A00617274696E672074656D706572617475D3
:10278A007265206D6561737572656D656E740A0098
:10279A00424D5031383020696E6974207375636315
:1027AA0065737300424D5031383020696E69742068
:1027BA006661696C0A0A0041636B6E6F776C6465C7
:1027CA006765206661696C65642E0053756363658D
:1027DA00737366756C6C2061636B6E6F776C65647E
:1027EA006765642E0053656E64696E67203A20003F
:107800000C94343C0C94513C0C94513C0C94513CE1
:107810000C94513C0C94513C0C94513C0C94513CB4
:107820000C94513C0C94513C0C94513C0C94513CA4
:107830000C94513C0C94513C0C94513C0C94513C94
:107840000C94513C0C94513C0C94513C0C94513C84
:107850000C94513C0C94513C0C94513C0C94513C74
:107860000C94513C0C94513C11241FBECFEFD8E036
:10787000DEBFCDBF11E0A0E0B1E0EAE8FFE702C063
:1078800005900D92A230B107D9F712E0A2E0B1E065
:1078900001C01D92AD30B107E1F70E942D3D0C945F
:1078A000C33F0C94003C982F95959595959595958B
:1078B000905D8F708A307CF0282F295A8091C0000B
:1078C00085FFFCCF9093C6008091C00085FFFCCF60
:1078D0002093C6000895282F205DF0CF982F809127
:1078E000C00085FFFCCF9093C6000895EF92FF92F1
:1078F0000F931F93EE24FF2487018091C00087FD22
:1079000017C00894E11CF11C011D111D81E2E8164D
:1079100081EAF80687E0080780E0180770F3E09135
:107920000401F091050109958091C00087FFE9CF1E
:107930008091C6001F910F91FF90EF9008950E94D3
:10794000763C982F8091C00085FFFCCF9093C600B5
:1079500091362CF490330CF09053892F089597555D
:10796000892F08951F930E949F3C182F0E949F3CCF
:107970001295107F810F1F9108951F93182F882350
:1079800021F00E94763C1150E1F71F9108951F935A
:10799000182F0E94763C803249F0809103018F5F5E
:1079A000809303018530C1F01F9108958091C0003C
:1079B00085FFFCCF84E18093C6008091C00085FFE5
:1079C000FCCF1093C6008091C00085FFFCCF80E102
:1079D0008093C6001F910895E0910401F091050184
:1079E00009951F9108950E94763C803241F0809164
:1079F00003018F5F80930301853081F008958091AA
:107A0000C00085FFFCCF84E18093C6008091C00058
:107A100085FFFCCF80E18093C6000895E0910401CA
:107A2000F09105010995089548EC50E08823A1F0F4
:107A30002D9A28EE33E0FA013197F1F721503040CA
:107A4000D1F72D9828EE33E0FA013197F1F7215064
:107A50003040D1F7815061F708953F924F925F9285
:107A60006F927F928F929F92AF92BF92CF92DF924E
:107A7000EF92FF920F931F93CF93DF93000082E06A
:107A80008093C00080E18093C4001092C50088E11B
:107A90008093C10086E08093C2005098589A259A3E
:107AA00081E00E94143D24E1F22E9EE1E92E85E959
:107AB000D82E0FE0C02E10E1B12EAA24A394B1E479
:107AC0009B2EA6E58A2EF2E57F2EE0E26E2E79E46B
:107AD000572E63E5462E50E5352E0E94763C8033C6
:107AE000B1F18133B9F1803409F46FC0813409F404
:107AF00076C0823409F485C0853409F488C08035A5
:107B000031F1823521F1813511F1853509F485C0D6
:107B1000863509F48DC0843609F496C0843709F49B
:107B200003C1853709F472C1863709F466C08091B4
:107B300003018F5F80930301853079F6E0910401A2
:107B4000F091050109950E94763C803351F60E9420
:107B5000F33CC3CF0E94763C803249F78091C0004D
:107B600085FFFCCFF092C6008091C00085FFFCCF5E
:107B70009092C6008091C00085FFFCCF8092C60025
:107B80008091C00085FFFCCF7092C6008091C0003C
:107B900085FFFCCF6092C6008091C00085FFFCCFBE
:107BA0005092C6008091C00085FFFCCF4092C60075
:107BB0008091C00085FFFCCF3092C6008091C0004C
:107BC00085FFFCCFB092C60088CF0E94763C8638F5
:107BD00008F4BDCF0E94763C0E94F33C7ECF0E9409
:107BE000763C803809F49CC0813809F40BC1823896
:107BF00009F430C1883909F48FC080E00E94C73C85
:107C00006CCF84E10E94BD3C0E94F33C66CF85E0CE
:107C10000E94BD3C0E94F33C60CF0E94763C809362
:107C200006010E94763C809307010E94F33C55CFE9
:107C30000E94763C803309F411C183E00E94BD3C70
:107C400080E00E94C73C49CF0E94763C80930902A5
:107C50000E94763C8093080280910C028E7F809374
:107C60000C020E94763C853409F409C18091080217
:107C700090910902892B89F000E010E00E94763C87
:107C8000F801E85FFE4F80830F5F1F4F809108026D
:107C9000909109020817190788F30E94763C8032F8
:107CA00009F045CF80910C0280FFF5C0609106017C
:107CB00070910701660F771F7093070160930601AB
:107CC000A0910802B09109021097C9F0E8E0F1E034
:107CD0009B01AD014E0F5F1FF999FECF32BD21BD53
:107CE000819180BDFA9AF99A2F5F3F4FE417F5070B
:107CF00099F76A0F7B1F70930701609306018091CB
:107D0000C00085FFFCCFF092C6008091C00085FFC7
:107D1000FCCFB092C600E1CE83E00E94C73CDDCE2E
:107D200082E00E94C73CD9CE0E94763C8093090233
:107D30000E94763C80930802809106019091070191
:107D4000880F991F90930701809306010E94763C4B
:107D5000853409F49AC080910C028E7F80930C02C6
:107D60000E94763C803209F0B8CE8091C00085FF39
:107D7000FCCFF092C600A0910802B09109021097C2
:107D8000C1F180910C02082F0170182F1695117007
:107D9000E0910601F0910701AF014F5F5F4FBA011B
:107DA00020E030E00023B1F4112339F49491809164
:107DB000C00085FFFCCF9093C6002F5F3F4FCB01E3
:107DC0000196FA012A173B0780F4BC014F5F5F4F11
:107DD000002351F3F999FECFF2BDE1BDF89A90B5B9
:107DE0008091C00085FFFCCFE6CF709307016093C0
:107DF00006018091C00085FDE5CE8091C00085FF21
:107E0000F8CFE0CE81E00E94C73C67CE0E94763C6E
:107E1000803209F08CCE8091C00085FFFCCFF092BB
:107E2000C6008091C00085FFFCCFE092C600809123
:107E3000C00085FFFCCFD092C6008091C00085FFB6
:107E4000FCCFC092C6008091C00085FFFCCFB092ED
:107E5000C60043CE80E10E94C73C3FCE0E94763CE4
:107E60000E94763C182F0E94763C112309F483C0AF
:107E7000113009F484C08FE00E94C73C2ECE80915F
:107E80000C02816080930C02F1CE80910C02816023
:107E900080930C0265CF809107018823880F880B9F
:107EA0008A2180930B028091060190910701880F2F
:107EB000991F90930701809306018091080280FF2B
:107EC00009C08091080290910902019690930902DD
:107ED00080930802F894F999FECF1127E0910601EA
:107EE000F0910701C8E0D1E0809108029091090269
:107EF000103091F40091570001700130D9F303E084
:107F000000935700E8950091570001700130D9F3B4
:107F100001E100935700E8950990199000915700EE
:107F200001700130D9F301E000935700E8951395F3
:107F3000103498F011270091570001700130D9F3E7
:107F400005E000935700E89500915700017001305B
:107F5000D9F301E100935700E8953296029709F0B2
:107F6000C7CF103011F00296E5CF11248091C000E8
:107F700085FFC5CEC8CE8EE10E94C73CAECD85E957
:0A7F80000E94C73CAACDF894FFCF81
:027F8A00800075
:040000030000780081
:00000001FF
